{
  "_format": "hh-sol-artifact-1",
  "contractName": "OpenPetNFT",
  "sourceName": "contracts/OpenPetNFT.sol",
  "abi": [
    {
      "inputs": [],
      "stateMutability": "nonpayable",
      "type": "constructor"
    },
    {
      "anonymous": false,
      "inputs": [
        {
          "indexed": true,
          "internalType": "address",
          "name": "owner",
          "type": "address"
        },
        {
          "indexed": true,
          "internalType": "address",
          "name": "approved",
          "type": "address"
        },
        {
          "indexed": true,
          "internalType": "uint256",
          "name": "tokenId",
          "type": "uint256"
        }
      ],
      "name": "Approval",
      "type": "event"
    },
    {
      "anonymous": false,
      "inputs": [
        {
          "indexed": true,
          "internalType": "address",
          "name": "owner",
          "type": "address"
        },
        {
          "indexed": true,
          "internalType": "address",
          "name": "operator",
          "type": "address"
        },
        {
          "indexed": false,
          "internalType": "bool",
          "name": "approved",
          "type": "bool"
        }
      ],
      "name": "ApprovalForAll",
      "type": "event"
    },
    {
      "anonymous": false,
      "inputs": [
        {
          "indexed": true,
          "internalType": "address",
          "name": "previousOwner",
          "type": "address"
        },
        {
          "indexed": true,
          "internalType": "address",
          "name": "newOwner",
          "type": "address"
        }
      ],
      "name": "OwnershipTransferred",
      "type": "event"
    },
    {
      "anonymous": false,
      "inputs": [
        {
          "indexed": true,
          "internalType": "address",
          "name": "from",
          "type": "address"
        },
        {
          "indexed": true,
          "internalType": "address",
          "name": "to",
          "type": "address"
        },
        {
          "indexed": true,
          "internalType": "uint256",
          "name": "tokenId",
          "type": "uint256"
        }
      ],
      "name": "Transfer",
      "type": "event"
    },
    {
      "inputs": [
        {
          "internalType": "address",
          "name": "to",
          "type": "address"
        },
        {
          "internalType": "uint256",
          "name": "tokenId",
          "type": "uint256"
        }
      ],
      "name": "approve",
      "outputs": [],
      "stateMutability": "nonpayable",
      "type": "function"
    },
    {
      "inputs": [
        {
          "internalType": "address",
          "name": "owner",
          "type": "address"
        }
      ],
      "name": "balanceOf",
      "outputs": [
        {
          "internalType": "uint256",
          "name": "",
          "type": "uint256"
        }
      ],
      "stateMutability": "view",
      "type": "function"
    },
    {
      "inputs": [
        {
          "internalType": "uint256",
          "name": "tokenId",
          "type": "uint256"
        }
      ],
      "name": "getApproved",
      "outputs": [
        {
          "internalType": "address",
          "name": "",
          "type": "address"
        }
      ],
      "stateMutability": "view",
      "type": "function"
    },
    {
      "inputs": [
        {
          "internalType": "uint256",
          "name": "_tokenId",
          "type": "uint256"
        }
      ],
      "name": "getPet",
      "outputs": [
        {
          "internalType": "string",
          "name": "name",
          "type": "string"
        },
        {
          "internalType": "string",
          "name": "arweaveStorageLocation",
          "type": "string"
        }
      ],
      "stateMutability": "view",
      "type": "function"
    },
    {
      "inputs": [
        {
          "internalType": "address",
          "name": "owner",
          "type": "address"
        },
        {
          "internalType": "address",
          "name": "operator",
          "type": "address"
        }
      ],
      "name": "isApprovedForAll",
      "outputs": [
        {
          "internalType": "bool",
          "name": "",
          "type": "bool"
        }
      ],
      "stateMutability": "view",
      "type": "function"
    },
    {
      "inputs": [
        {
          "internalType": "string",
          "name": "_name",
          "type": "string"
        },
        {
          "internalType": "string",
          "name": "_arweaveStorageLocation",
          "type": "string"
        }
      ],
      "name": "mintPet",
      "outputs": [
        {
          "internalType": "uint256",
          "name": "",
          "type": "uint256"
        }
      ],
      "stateMutability": "nonpayable",
      "type": "function"
    },
    {
      "inputs": [],
      "name": "name",
      "outputs": [
        {
          "internalType": "string",
          "name": "",
          "type": "string"
        }
      ],
      "stateMutability": "view",
      "type": "function"
    },
    {
      "inputs": [],
      "name": "owner",
      "outputs": [
        {
          "internalType": "address",
          "name": "",
          "type": "address"
        }
      ],
      "stateMutability": "view",
      "type": "function"
    },
    {
      "inputs": [
        {
          "internalType": "uint256",
          "name": "tokenId",
          "type": "uint256"
        }
      ],
      "name": "ownerOf",
      "outputs": [
        {
          "internalType": "address",
          "name": "",
          "type": "address"
        }
      ],
      "stateMutability": "view",
      "type": "function"
    },
    {
      "inputs": [],
      "name": "renounceOwnership",
      "outputs": [],
      "stateMutability": "nonpayable",
      "type": "function"
    },
    {
      "inputs": [
        {
          "internalType": "address",
          "name": "from",
          "type": "address"
        },
        {
          "internalType": "address",
          "name": "to",
          "type": "address"
        },
        {
          "internalType": "uint256",
          "name": "tokenId",
          "type": "uint256"
        }
      ],
      "name": "safeTransferFrom",
      "outputs": [],
      "stateMutability": "nonpayable",
      "type": "function"
    },
    {
      "inputs": [
        {
          "internalType": "address",
          "name": "from",
          "type": "address"
        },
        {
          "internalType": "address",
          "name": "to",
          "type": "address"
        },
        {
          "internalType": "uint256",
          "name": "tokenId",
          "type": "uint256"
        },
        {
          "internalType": "bytes",
          "name": "data",
          "type": "bytes"
        }
      ],
      "name": "safeTransferFrom",
      "outputs": [],
      "stateMutability": "nonpayable",
      "type": "function"
    },
    {
      "inputs": [
        {
          "internalType": "address",
          "name": "operator",
          "type": "address"
        },
        {
          "internalType": "bool",
          "name": "approved",
          "type": "bool"
        }
      ],
      "name": "setApprovalForAll",
      "outputs": [],
      "stateMutability": "nonpayable",
      "type": "function"
    },
    {
      "inputs": [
        {
          "internalType": "bytes4",
          "name": "interfaceId",
          "type": "bytes4"
        }
      ],
      "name": "supportsInterface",
      "outputs": [
        {
          "internalType": "bool",
          "name": "",
          "type": "bool"
        }
      ],
      "stateMutability": "view",
      "type": "function"
    },
    {
      "inputs": [],
      "name": "symbol",
      "outputs": [
        {
          "internalType": "string",
          "name": "",
          "type": "string"
        }
      ],
      "stateMutability": "view",
      "type": "function"
    },
    {
      "inputs": [
        {
          "internalType": "uint256",
          "name": "index",
          "type": "uint256"
        }
      ],
      "name": "tokenByIndex",
      "outputs": [
        {
          "internalType": "uint256",
          "name": "",
          "type": "uint256"
        }
      ],
      "stateMutability": "view",
      "type": "function"
    },
    {
      "inputs": [
        {
          "internalType": "address",
          "name": "owner",
          "type": "address"
        },
        {
          "internalType": "uint256",
          "name": "index",
          "type": "uint256"
        }
      ],
      "name": "tokenOfOwnerByIndex",
      "outputs": [
        {
          "internalType": "uint256",
          "name": "",
          "type": "uint256"
        }
      ],
      "stateMutability": "view",
      "type": "function"
    },
    {
      "inputs": [
        {
          "internalType": "uint256",
          "name": "tokenId",
          "type": "uint256"
        }
      ],
      "name": "tokenURI",
      "outputs": [
        {
          "internalType": "string",
          "name": "",
          "type": "string"
        }
      ],
      "stateMutability": "view",
      "type": "function"
    },
    {
      "inputs": [],
      "name": "totalSupply",
      "outputs": [
        {
          "internalType": "uint256",
          "name": "",
          "type": "uint256"
        }
      ],
      "stateMutability": "view",
      "type": "function"
    },
    {
      "inputs": [
        {
          "internalType": "address",
          "name": "from",
          "type": "address"
        },
        {
          "internalType": "address",
          "name": "to",
          "type": "address"
        },
        {
          "internalType": "uint256",
          "name": "tokenId",
          "type": "uint256"
        }
      ],
      "name": "transferFrom",
      "outputs": [],
      "stateMutability": "nonpayable",
      "type": "function"
    },
    {
      "inputs": [
        {
          "internalType": "address",
          "name": "newOwner",
          "type": "address"
        }
      ],
      "name": "transferOwnership",
      "outputs": [],
      "stateMutability": "nonpayable",
      "type": "function"
    },
    {
      "inputs": [
        {
          "internalType": "uint256",
          "name": "_tokenId",
          "type": "uint256"
        },
        {
          "internalType": "string",
          "name": "_newArweaveStorageLocation",
          "type": "string"
        }
      ],
      "name": "updateArweaveStorageLocation",
      "outputs": [],
      "stateMutability": "nonpayable",
      "type": "function"
    }
  ],
  "bytecode": "0x60806040523480156200001157600080fd5b506040518060400160405280600a81526020017f4f70656e5065744e4654000000000000000000000000000000000000000000008152506040518060400160405280600381526020017f504554000000000000000000000000000000000000000000000000000000000081525081600090816200008f919062000412565b508060019081620000a1919062000412565b505050620000c4620000b8620000ca60201b60201c565b620000d260201b60201c565b620004f9565b600033905090565b6000600a60009054906101000a900473ffffffffffffffffffffffffffffffffffffffff16905081600a60006101000a81548173ffffffffffffffffffffffffffffffffffffffff021916908373ffffffffffffffffffffffffffffffffffffffff1602179055508173ffffffffffffffffffffffffffffffffffffffff168173ffffffffffffffffffffffffffffffffffffffff167f8be0079c531659141344cd1fd0a4f28419497f9722a3daafe3b4186f6b6457e060405160405180910390a35050565b600081519050919050565b7f4e487b7100000000000000000000000000000000000000000000000000000000600052604160045260246000fd5b7f4e487b7100000000000000000000000000000000000000000000000000000000600052602260045260246000fd5b600060028204905060018216806200021a57607f821691505b60208210810362000230576200022f620001d2565b5b50919050565b60008190508160005260206000209050919050565b60006020601f8301049050919050565b600082821b905092915050565b6000600883026200029a7fffffffffffffffffffffffffffffffffffffffffffffffffffffffffffffffff826200025b565b620002a686836200025b565b95508019841693508086168417925050509392505050565b6000819050919050565b6000819050919050565b6000620002f3620002ed620002e784620002be565b620002c8565b620002be565b9050919050565b6000819050919050565b6200030f83620002d2565b620003276200031e82620002fa565b84845462000268565b825550505050565b600090565b6200033e6200032f565b6200034b81848462000304565b505050565b5b8181101562000373576200036760008262000334565b60018101905062000351565b5050565b601f821115620003c2576200038c8162000236565b62000397846200024b565b81016020851015620003a7578190505b620003bf620003b6856200024b565b83018262000350565b50505b505050565b600082821c905092915050565b6000620003e760001984600802620003c7565b1980831691505092915050565b6000620004028383620003d4565b9150826002028217905092915050565b6200041d8262000198565b67ffffffffffffffff811115620004395762000438620001a3565b5b62000445825462000201565b6200045282828562000377565b600060209050601f8311600181146200048a576000841562000475578287015190505b620004818582620003f4565b865550620004f1565b601f1984166200049a8662000236565b60005b82811015620004c4578489015182556001820191506020850194506020810190506200049d565b86831015620004e45784890151620004e0601f891682620003d4565b8355505b6001600288020188555050505b505050505050565b6138a980620005096000396000f3fe608060405234801561001057600080fd5b50600436106101425760003560e01c806370a08231116100b8578063a22cb4651161007c578063a22cb4651461038a578063b88d4fde146103a6578063b8907732146103c2578063c87b56dd146103f2578063e985e9c514610422578063f2fde38b1461045257610142565b806370a08231146102f8578063715018a61461032857806386dbe29b146103325780638da5cb5b1461034e57806395d89b411461036c57610142565b806323b872dd1161010a57806323b872dd146101ff5780632f745c591461021b57806342842e0e1461024b5780634f6ccce71461026757806359d55194146102975780636352211e146102c857610142565b806301ffc9a71461014757806306fdde0314610177578063081812fc14610195578063095ea7b3146101c557806318160ddd146101e1575b600080fd5b610161600480360381019061015c9190612366565b61046e565b60405161016e91906123ae565b60405180910390f35b61017f6104e8565b60405161018c9190612459565b60405180910390f35b6101af60048036038101906101aa91906124b1565b61057a565b6040516101bc919061251f565b60405180910390f35b6101df60048036038101906101da9190612566565b6105c0565b005b6101e96106d7565b6040516101f691906125b5565b60405180910390f35b610219600480360381019061021491906125d0565b6106e4565b005b61023560048036038101906102309190612566565b610744565b60405161024291906125b5565b60405180910390f35b610265600480360381019061026091906125d0565b6107e9565b005b610281600480360381019061027c91906124b1565b610809565b60405161028e91906125b5565b60405180910390f35b6102b160048036038101906102ac91906124b1565b61087a565b6040516102bf929190612623565b60405180910390f35b6102e260048036038101906102dd91906124b1565b610a12565b6040516102ef919061251f565b60405180910390f35b610312600480360381019061030d919061265a565b610a98565b60405161031f91906125b5565b60405180910390f35b610330610b4f565b005b61034c600480360381019061034791906127bc565b610b63565b005b610356610bdb565b604051610363919061251f565b60405180910390f35b610374610c05565b6040516103819190612459565b60405180910390f35b6103a4600480360381019061039f9190612844565b610c97565b005b6103c060048036038101906103bb9190612925565b610cad565b005b6103dc60048036038101906103d791906129a8565b610d0f565b6040516103e991906125b5565b60405180910390f35b61040c600480360381019061040791906124b1565b610d9c565b6040516104199190612459565b60405180910390f35b61043c60048036038101906104379190612a20565b610e04565b60405161044991906123ae565b60405180910390f35b61046c6004803603810190610467919061265a565b610e98565b005b60007f780e9d63000000000000000000000000000000000000000000000000000000007bffffffffffffffffffffffffffffffffffffffffffffffffffffffff1916827bffffffffffffffffffffffffffffffffffffffffffffffffffffffff191614806104e157506104e082610f1b565b5b9050919050565b6060600080546104f790612a8f565b80601f016020809104026020016040519081016040528092919081815260200182805461052390612a8f565b80156105705780601f1061054557610100808354040283529160200191610570565b820191906000526020600020905b81548152906001019060200180831161055357829003601f168201915b5050505050905090565b600061058582610ffd565b6004600083815260200190815260200160002060009054906101000a900473ffffffffffffffffffffffffffffffffffffffff169050919050565b60006105cb82610a12565b90508073ffffffffffffffffffffffffffffffffffffffff168373ffffffffffffffffffffffffffffffffffffffff160361063b576040517f08c379a000000000000000000000000000000000000000000000000000000000815260040161063290612b32565b60405180910390fd5b8073ffffffffffffffffffffffffffffffffffffffff1661065a611048565b73ffffffffffffffffffffffffffffffffffffffff161480610689575061068881610683611048565b610e04565b5b6106c8576040517f08c379a00000000000000000000000000000000000000000000000000000000081526004016106bf90612bc4565b60405180910390fd5b6106d28383611050565b505050565b6000600880549050905090565b6106f56106ef611048565b82611109565b610734576040517f08c379a000000000000000000000000000000000000000000000000000000000815260040161072b90612c56565b60405180910390fd5b61073f83838361119e565b505050565b600061074f83610a98565b8210610790576040517f08c379a000000000000000000000000000000000000000000000000000000000815260040161078790612ce8565b60405180910390fd5b600660008473ffffffffffffffffffffffffffffffffffffffff1673ffffffffffffffffffffffffffffffffffffffff168152602001908152602001600020600083815260200190815260200160002054905092915050565b61080483838360405180602001604052806000815250610cad565b505050565b60006108136106d7565b8210610854576040517f08c379a000000000000000000000000000000000000000000000000000000000815260040161084b90612d7a565b60405180910390fd5b6008828154811061086857610867612d9a565b5b90600052602060002001549050919050565b60608061088683611497565b6108c5576040517f08c379a00000000000000000000000000000000000000000000000000000000081526004016108bc90612e15565b60405180910390fd5b600b6000848152602001908152602001600020600101600b60008581526020019081526020016000206000018180546108fd90612a8f565b80601f016020809104026020016040519081016040528092919081815260200182805461092990612a8f565b80156109765780601f1061094b57610100808354040283529160200191610976565b820191906000526020600020905b81548152906001019060200180831161095957829003601f168201915b5050505050915080805461098990612a8f565b80601f01602080910402602001604051908101604052809291908181526020018280546109b590612a8f565b8015610a025780601f106109d757610100808354040283529160200191610a02565b820191906000526020600020905b8154815290600101906020018083116109e557829003601f168201915b5050505050905091509150915091565b600080610a1e836114d8565b9050600073ffffffffffffffffffffffffffffffffffffffff168173ffffffffffffffffffffffffffffffffffffffff1603610a8f576040517f08c379a0000000000000000000000000000000000000000000000000000000008152600401610a8690612e81565b60405180910390fd5b80915050919050565b60008073ffffffffffffffffffffffffffffffffffffffff168273ffffffffffffffffffffffffffffffffffffffff1603610b08576040517f08c379a0000000000000000000000000000000000000000000000000000000008152600401610aff90612f13565b60405180910390fd5b600360008373ffffffffffffffffffffffffffffffffffffffff1673ffffffffffffffffffffffffffffffffffffffff168152602001908152602001600020549050919050565b610b57611515565b610b616000611593565b565b610b6b611515565b610b7482611497565b610bb3576040517f08c379a0000000000000000000000000000000000000000000000000000000008152600401610baa90612e15565b60405180910390fd5b80600b60008481526020019081526020016000206000019081610bd691906130df565b505050565b6000600a60009054906101000a900473ffffffffffffffffffffffffffffffffffffffff16905090565b606060018054610c1490612a8f565b80601f0160208091040260200160405190810160405280929190818152602001828054610c4090612a8f565b8015610c8d5780601f10610c6257610100808354040283529160200191610c8d565b820191906000526020600020905b815481529060010190602001808311610c7057829003601f168201915b5050505050905090565b610ca9610ca2611048565b8383611659565b5050565b610cbe610cb8611048565b83611109565b610cfd576040517f08c379a0000000000000000000000000000000000000000000000000000000008152600401610cf490612c56565b60405180910390fd5b610d09848484846117c5565b50505050565b6000610d19611515565b60006001610d256106d7565b610d2f91906131e0565b9050610d3b3382611821565b604051806040016040528084815260200185815250600b60008381526020019081526020016000206000820151816000019081610d7891906130df565b506020820151816001019081610d8e91906130df565b509050508091505092915050565b6060610da782610ffd565b6000610db1611a3e565b90506000815111610dd15760405180602001604052806000815250610dfc565b80610ddb84611a55565b604051602001610dec929190613250565b6040516020818303038152906040525b915050919050565b6000600560008473ffffffffffffffffffffffffffffffffffffffff1673ffffffffffffffffffffffffffffffffffffffff16815260200190815260200160002060008373ffffffffffffffffffffffffffffffffffffffff1673ffffffffffffffffffffffffffffffffffffffff16815260200190815260200160002060009054906101000a900460ff16905092915050565b610ea0611515565b600073ffffffffffffffffffffffffffffffffffffffff168173ffffffffffffffffffffffffffffffffffffffff1603610f0f576040517f08c379a0000000000000000000000000000000000000000000000000000000008152600401610f06906132e6565b60405180910390fd5b610f1881611593565b50565b60007f80ac58cd000000000000000000000000000000000000000000000000000000007bffffffffffffffffffffffffffffffffffffffffffffffffffffffff1916827bffffffffffffffffffffffffffffffffffffffffffffffffffffffff19161480610fe657507f5b5e139f000000000000000000000000000000000000000000000000000000007bffffffffffffffffffffffffffffffffffffffffffffffffffffffff1916827bffffffffffffffffffffffffffffffffffffffffffffffffffffffff1916145b80610ff65750610ff582611b23565b5b9050919050565b61100681611497565b611045576040517f08c379a000000000000000000000000000000000000000000000000000000000815260040161103c90612e81565b60405180910390fd5b50565b600033905090565b816004600083815260200190815260200160002060006101000a81548173ffffffffffffffffffffffffffffffffffffffff021916908373ffffffffffffffffffffffffffffffffffffffff160217905550808273ffffffffffffffffffffffffffffffffffffffff166110c383610a12565b73ffffffffffffffffffffffffffffffffffffffff167f8c5be1e5ebec7d5bd14f71427d1e84f3dd0314c0f7b2291e5b200ac8c7c3b92560405160405180910390a45050565b60008061111583610a12565b90508073ffffffffffffffffffffffffffffffffffffffff168473ffffffffffffffffffffffffffffffffffffffff16148061115757506111568185610e04565b5b8061119557508373ffffffffffffffffffffffffffffffffffffffff1661117d8461057a565b73ffffffffffffffffffffffffffffffffffffffff16145b91505092915050565b8273ffffffffffffffffffffffffffffffffffffffff166111be82610a12565b73ffffffffffffffffffffffffffffffffffffffff1614611214576040517f08c379a000000000000000000000000000000000000000000000000000000000815260040161120b90613378565b60405180910390fd5b600073ffffffffffffffffffffffffffffffffffffffff168273ffffffffffffffffffffffffffffffffffffffff1603611283576040517f08c379a000000000000000000000000000000000000000000000000000000000815260040161127a9061340a565b60405180910390fd5b6112908383836001611b8d565b8273ffffffffffffffffffffffffffffffffffffffff166112b082610a12565b73ffffffffffffffffffffffffffffffffffffffff1614611306576040517f08c379a00000000000000000000000000000000000000000000000000000000081526004016112fd90613378565b60405180910390fd5b6004600082815260200190815260200160002060006101000a81549073ffffffffffffffffffffffffffffffffffffffff02191690556001600360008573ffffffffffffffffffffffffffffffffffffffff1673ffffffffffffffffffffffffffffffffffffffff168152602001908152602001600020600082825403925050819055506001600360008473ffffffffffffffffffffffffffffffffffffffff1673ffffffffffffffffffffffffffffffffffffffff16815260200190815260200160002060008282540192505081905550816002600083815260200190815260200160002060006101000a81548173ffffffffffffffffffffffffffffffffffffffff021916908373ffffffffffffffffffffffffffffffffffffffff160217905550808273ffffffffffffffffffffffffffffffffffffffff168473ffffffffffffffffffffffffffffffffffffffff167fddf252ad1be2c89b69c2b068fc378daa952ba7f163c4a11628f55a4df523b3ef60405160405180910390a46114928383836001611ceb565b505050565b60008073ffffffffffffffffffffffffffffffffffffffff166114b9836114d8565b73ffffffffffffffffffffffffffffffffffffffff1614159050919050565b60006002600083815260200190815260200160002060009054906101000a900473ffffffffffffffffffffffffffffffffffffffff169050919050565b61151d611048565b73ffffffffffffffffffffffffffffffffffffffff1661153b610bdb565b73ffffffffffffffffffffffffffffffffffffffff1614611591576040517f08c379a000000000000000000000000000000000000000000000000000000000815260040161158890613476565b60405180910390fd5b565b6000600a60009054906101000a900473ffffffffffffffffffffffffffffffffffffffff16905081600a60006101000a81548173ffffffffffffffffffffffffffffffffffffffff021916908373ffffffffffffffffffffffffffffffffffffffff1602179055508173ffffffffffffffffffffffffffffffffffffffff168173ffffffffffffffffffffffffffffffffffffffff167f8be0079c531659141344cd1fd0a4f28419497f9722a3daafe3b4186f6b6457e060405160405180910390a35050565b8173ffffffffffffffffffffffffffffffffffffffff168373ffffffffffffffffffffffffffffffffffffffff16036116c7576040517f08c379a00000000000000000000000000000000000000000000000000000000081526004016116be906134e2565b60405180910390fd5b80600560008573ffffffffffffffffffffffffffffffffffffffff1673ffffffffffffffffffffffffffffffffffffffff16815260200190815260200160002060008473ffffffffffffffffffffffffffffffffffffffff1673ffffffffffffffffffffffffffffffffffffffff16815260200190815260200160002060006101000a81548160ff0219169083151502179055508173ffffffffffffffffffffffffffffffffffffffff168373ffffffffffffffffffffffffffffffffffffffff167f17307eab39ab6107e8899845ad3d59bd9653f200f220920489ca2b5937696c31836040516117b891906123ae565b60405180910390a3505050565b6117d084848461119e565b6117dc84848484611cf1565b61181b576040517f08c379a000000000000000000000000000000000000000000000000000000000815260040161181290613574565b60405180910390fd5b50505050565b600073ffffffffffffffffffffffffffffffffffffffff168273ffffffffffffffffffffffffffffffffffffffff1603611890576040517f08c379a0000000000000000000000000000000000000000000000000000000008152600401611887906135e0565b60405180910390fd5b61189981611497565b156118d9576040517f08c379a00000000000000000000000000000000000000000000000000000000081526004016118d09061364c565b60405180910390fd5b6118e7600083836001611b8d565b6118f081611497565b15611930576040517f08c379a00000000000000000000000000000000000000000000000000000000081526004016119279061364c565b60405180910390fd5b6001600360008473ffffffffffffffffffffffffffffffffffffffff1673ffffffffffffffffffffffffffffffffffffffff16815260200190815260200160002060008282540192505081905550816002600083815260200190815260200160002060006101000a81548173ffffffffffffffffffffffffffffffffffffffff021916908373ffffffffffffffffffffffffffffffffffffffff160217905550808273ffffffffffffffffffffffffffffffffffffffff16600073ffffffffffffffffffffffffffffffffffffffff167fddf252ad1be2c89b69c2b068fc378daa952ba7f163c4a11628f55a4df523b3ef60405160405180910390a4611a3a600083836001611ceb565b5050565b606060405180602001604052806000815250905090565b606060006001611a6484611e78565b01905060008167ffffffffffffffff811115611a8357611a82612691565b5b6040519080825280601f01601f191660200182016040528015611ab55781602001600182028036833780820191505090505b509050600082602001820190505b600115611b18578080600190039150507f3031323334353637383961626364656600000000000000000000000000000000600a86061a8153600a8581611b0c57611b0b61366c565b5b04945060008503611ac3575b819350505050919050565b60007f01ffc9a7000000000000000000000000000000000000000000000000000000007bffffffffffffffffffffffffffffffffffffffffffffffffffffffff1916827bffffffffffffffffffffffffffffffffffffffffffffffffffffffff1916149050919050565b611b9984848484611fcb565b6001811115611bdd576040517f08c379a0000000000000000000000000000000000000000000000000000000008152600401611bd49061370d565b60405180910390fd5b6000829050600073ffffffffffffffffffffffffffffffffffffffff168573ffffffffffffffffffffffffffffffffffffffff1603611c2457611c1f81611fd1565b611c63565b8373ffffffffffffffffffffffffffffffffffffffff168573ffffffffffffffffffffffffffffffffffffffff1614611c6257611c61858261201a565b5b5b600073ffffffffffffffffffffffffffffffffffffffff168473ffffffffffffffffffffffffffffffffffffffff1603611ca557611ca081612187565b611ce4565b8473ffffffffffffffffffffffffffffffffffffffff168473ffffffffffffffffffffffffffffffffffffffff1614611ce357611ce28482612258565b5b5b5050505050565b50505050565b6000611d128473ffffffffffffffffffffffffffffffffffffffff166122d7565b15611e6b578373ffffffffffffffffffffffffffffffffffffffff1663150b7a02611d3b611048565b8786866040518563ffffffff1660e01b8152600401611d5d9493929190613782565b6020604051808303816000875af1925050508015611d9957506040513d601f19601f82011682018060405250810190611d9691906137e3565b60015b611e1b573d8060008114611dc9576040519150601f19603f3d011682016040523d82523d6000602084013e611dce565b606091505b506000815103611e13576040517f08c379a0000000000000000000000000000000000000000000000000000000008152600401611e0a90613574565b60405180910390fd5b805181602001fd5b63150b7a0260e01b7bffffffffffffffffffffffffffffffffffffffffffffffffffffffff1916817bffffffffffffffffffffffffffffffffffffffffffffffffffffffff191614915050611e70565b600190505b949350505050565b600080600090507a184f03e93ff9f4daa797ed6e38ed64bf6a1f0100000000000000008310611ed6577a184f03e93ff9f4daa797ed6e38ed64bf6a1f0100000000000000008381611ecc57611ecb61366c565b5b0492506040810190505b6d04ee2d6d415b85acef81000000008310611f13576d04ee2d6d415b85acef81000000008381611f0957611f0861366c565b5b0492506020810190505b662386f26fc100008310611f4257662386f26fc100008381611f3857611f3761366c565b5b0492506010810190505b6305f5e1008310611f6b576305f5e1008381611f6157611f6061366c565b5b0492506008810190505b6127108310611f90576127108381611f8657611f8561366c565b5b0492506004810190505b60648310611fb35760648381611fa957611fa861366c565b5b0492506002810190505b600a8310611fc2576001810190505b80915050919050565b50505050565b6008805490506009600083815260200190815260200160002081905550600881908060018154018082558091505060019003906000526020600020016000909190919091505550565b6000600161202784610a98565b6120319190613810565b9050600060076000848152602001908152602001600020549050818114612116576000600660008673ffffffffffffffffffffffffffffffffffffffff1673ffffffffffffffffffffffffffffffffffffffff168152602001908152602001600020600084815260200190815260200160002054905080600660008773ffffffffffffffffffffffffffffffffffffffff1673ffffffffffffffffffffffffffffffffffffffff168152602001908152602001600020600084815260200190815260200160002081905550816007600083815260200190815260200160002081905550505b6007600084815260200190815260200160002060009055600660008573ffffffffffffffffffffffffffffffffffffffff1673ffffffffffffffffffffffffffffffffffffffff16815260200190815260200160002060008381526020019081526020016000206000905550505050565b6000600160088054905061219b9190613810565b90506000600960008481526020019081526020016000205490506000600883815481106121cb576121ca612d9a565b5b9060005260206000200154905080600883815481106121ed576121ec612d9a565b5b90600052602060002001819055508160096000838152602001908152602001600020819055506009600085815260200190815260200160002060009055600880548061223c5761223b613844565b5b6001900381819060005260206000200160009055905550505050565b600061226383610a98565b905081600660008573ffffffffffffffffffffffffffffffffffffffff1673ffffffffffffffffffffffffffffffffffffffff168152602001908152602001600020600083815260200190815260200160002081905550806007600084815260200190815260200160002081905550505050565b6000808273ffffffffffffffffffffffffffffffffffffffff163b119050919050565b6000604051905090565b600080fd5b600080fd5b60007fffffffff0000000000000000000000000000000000000000000000000000000082169050919050565b6123438161230e565b811461234e57600080fd5b50565b6000813590506123608161233a565b92915050565b60006020828403121561237c5761237b612304565b5b600061238a84828501612351565b91505092915050565b60008115159050919050565b6123a881612393565b82525050565b60006020820190506123c3600083018461239f565b92915050565b600081519050919050565b600082825260208201905092915050565b60005b838110156124035780820151818401526020810190506123e8565b60008484015250505050565b6000601f19601f8301169050919050565b600061242b826123c9565b61243581856123d4565b93506124458185602086016123e5565b61244e8161240f565b840191505092915050565b600060208201905081810360008301526124738184612420565b905092915050565b6000819050919050565b61248e8161247b565b811461249957600080fd5b50565b6000813590506124ab81612485565b92915050565b6000602082840312156124c7576124c6612304565b5b60006124d58482850161249c565b91505092915050565b600073ffffffffffffffffffffffffffffffffffffffff82169050919050565b6000612509826124de565b9050919050565b612519816124fe565b82525050565b60006020820190506125346000830184612510565b92915050565b612543816124fe565b811461254e57600080fd5b50565b6000813590506125608161253a565b92915050565b6000806040838503121561257d5761257c612304565b5b600061258b85828601612551565b925050602061259c8582860161249c565b9150509250929050565b6125af8161247b565b82525050565b60006020820190506125ca60008301846125a6565b92915050565b6000806000606084860312156125e9576125e8612304565b5b60006125f786828701612551565b935050602061260886828701612551565b92505060406126198682870161249c565b9150509250925092565b6000604082019050818103600083015261263d8185612420565b905081810360208301526126518184612420565b90509392505050565b6000602082840312156126705761266f612304565b5b600061267e84828501612551565b91505092915050565b600080fd5b600080fd5b7f4e487b7100000000000000000000000000000000000000000000000000000000600052604160045260246000fd5b6126c98261240f565b810181811067ffffffffffffffff821117156126e8576126e7612691565b5b80604052505050565b60006126fb6122fa565b905061270782826126c0565b919050565b600067ffffffffffffffff82111561272757612726612691565b5b6127308261240f565b9050602081019050919050565b82818337600083830152505050565b600061275f61275a8461270c565b6126f1565b90508281526020810184848401111561277b5761277a61268c565b5b61278684828561273d565b509392505050565b600082601f8301126127a3576127a2612687565b5b81356127b384826020860161274c565b91505092915050565b600080604083850312156127d3576127d2612304565b5b60006127e18582860161249c565b925050602083013567ffffffffffffffff81111561280257612801612309565b5b61280e8582860161278e565b9150509250929050565b61282181612393565b811461282c57600080fd5b50565b60008135905061283e81612818565b92915050565b6000806040838503121561285b5761285a612304565b5b600061286985828601612551565b925050602061287a8582860161282f565b9150509250929050565b600067ffffffffffffffff82111561289f5761289e612691565b5b6128a88261240f565b9050602081019050919050565b60006128c86128c384612884565b6126f1565b9050828152602081018484840111156128e4576128e361268c565b5b6128ef84828561273d565b509392505050565b600082601f83011261290c5761290b612687565b5b813561291c8482602086016128b5565b91505092915050565b6000806000806080858703121561293f5761293e612304565b5b600061294d87828801612551565b945050602061295e87828801612551565b935050604061296f8782880161249c565b925050606085013567ffffffffffffffff8111156129905761298f612309565b5b61299c878288016128f7565b91505092959194509250565b600080604083850312156129bf576129be612304565b5b600083013567ffffffffffffffff8111156129dd576129dc612309565b5b6129e98582860161278e565b925050602083013567ffffffffffffffff811115612a0a57612a09612309565b5b612a168582860161278e565b9150509250929050565b60008060408385031215612a3757612a36612304565b5b6000612a4585828601612551565b9250506020612a5685828601612551565b9150509250929050565b7f4e487b7100000000000000000000000000000000000000000000000000000000600052602260045260246000fd5b60006002820490506001821680612aa757607f821691505b602082108103612aba57612ab9612a60565b5b50919050565b7f4552433732313a20617070726f76616c20746f2063757272656e74206f776e6560008201527f7200000000000000000000000000000000000000000000000000000000000000602082015250565b6000612b1c6021836123d4565b9150612b2782612ac0565b604082019050919050565b60006020820190508181036000830152612b4b81612b0f565b9050919050565b7f4552433732313a20617070726f76652063616c6c6572206973206e6f7420746f60008201527f6b656e206f776e6572206f7220617070726f76656420666f7220616c6c000000602082015250565b6000612bae603d836123d4565b9150612bb982612b52565b604082019050919050565b60006020820190508181036000830152612bdd81612ba1565b9050919050565b7f4552433732313a2063616c6c6572206973206e6f7420746f6b656e206f776e6560008201527f72206f7220617070726f76656400000000000000000000000000000000000000602082015250565b6000612c40602d836123d4565b9150612c4b82612be4565b604082019050919050565b60006020820190508181036000830152612c6f81612c33565b9050919050565b7f455243373231456e756d657261626c653a206f776e657220696e646578206f7560008201527f74206f6620626f756e6473000000000000000000000000000000000000000000602082015250565b6000612cd2602b836123d4565b9150612cdd82612c76565b604082019050919050565b60006020820190508181036000830152612d0181612cc5565b9050919050565b7f455243373231456e756d657261626c653a20676c6f62616c20696e646578206f60008201527f7574206f6620626f756e64730000000000000000000000000000000000000000602082015250565b6000612d64602c836123d4565b9150612d6f82612d08565b604082019050919050565b60006020820190508181036000830152612d9381612d57565b9050919050565b7f4e487b7100000000000000000000000000000000000000000000000000000000600052603260045260246000fd5b7f50657420646f6573206e6f742065786973740000000000000000000000000000600082015250565b6000612dff6012836123d4565b9150612e0a82612dc9565b602082019050919050565b60006020820190508181036000830152612e2e81612df2565b9050919050565b7f4552433732313a20696e76616c696420746f6b656e2049440000000000000000600082015250565b6000612e6b6018836123d4565b9150612e7682612e35565b602082019050919050565b60006020820190508181036000830152612e9a81612e5e565b9050919050565b7f4552433732313a2061646472657373207a65726f206973206e6f74206120766160008201527f6c6964206f776e65720000000000000000000000000000000000000000000000602082015250565b6000612efd6029836123d4565b9150612f0882612ea1565b604082019050919050565b60006020820190508181036000830152612f2c81612ef0565b9050919050565b60008190508160005260206000209050919050565b60006020601f8301049050919050565b600082821b905092915050565b600060088302612f957fffffffffffffffffffffffffffffffffffffffffffffffffffffffffffffffff82612f58565b612f9f8683612f58565b95508019841693508086168417925050509392505050565b6000819050919050565b6000612fdc612fd7612fd28461247b565b612fb7565b61247b565b9050919050565b6000819050919050565b612ff683612fc1565b61300a61300282612fe3565b848454612f65565b825550505050565b600090565b61301f613012565b61302a818484612fed565b505050565b5b8181101561304e57613043600082613017565b600181019050613030565b5050565b601f8211156130935761306481612f33565b61306d84612f48565b8101602085101561307c578190505b61309061308885612f48565b83018261302f565b50505b505050565b600082821c905092915050565b60006130b660001984600802613098565b1980831691505092915050565b60006130cf83836130a5565b9150826002028217905092915050565b6130e8826123c9565b67ffffffffffffffff81111561310157613100612691565b5b61310b8254612a8f565b613116828285613052565b600060209050601f8311600181146131495760008415613137578287015190505b61314185826130c3565b8655506131a9565b601f19841661315786612f33565b60005b8281101561317f5784890151825560018201915060208501945060208101905061315a565b8683101561319c5784890151613198601f8916826130a5565b8355505b6001600288020188555050505b505050505050565b7f4e487b7100000000000000000000000000000000000000000000000000000000600052601160045260246000fd5b60006131eb8261247b565b91506131f68361247b565b925082820190508082111561320e5761320d6131b1565b5b92915050565b600081905092915050565b600061322a826123c9565b6132348185613214565b93506132448185602086016123e5565b80840191505092915050565b600061325c828561321f565b9150613268828461321f565b91508190509392505050565b7f4f776e61626c653a206e6577206f776e657220697320746865207a65726f206160008201527f6464726573730000000000000000000000000000000000000000000000000000602082015250565b60006132d06026836123d4565b91506132db82613274565b604082019050919050565b600060208201905081810360008301526132ff816132c3565b9050919050565b7f4552433732313a207472616e736665722066726f6d20696e636f72726563742060008201527f6f776e6572000000000000000000000000000000000000000000000000000000602082015250565b60006133626025836123d4565b915061336d82613306565b604082019050919050565b6000602082019050818103600083015261339181613355565b9050919050565b7f4552433732313a207472616e7366657220746f20746865207a65726f2061646460008201527f7265737300000000000000000000000000000000000000000000000000000000602082015250565b60006133f46024836123d4565b91506133ff82613398565b604082019050919050565b60006020820190508181036000830152613423816133e7565b9050919050565b7f4f776e61626c653a2063616c6c6572206973206e6f7420746865206f776e6572600082015250565b60006134606020836123d4565b915061346b8261342a565b602082019050919050565b6000602082019050818103600083015261348f81613453565b9050919050565b7f4552433732313a20617070726f766520746f2063616c6c657200000000000000600082015250565b60006134cc6019836123d4565b91506134d782613496565b602082019050919050565b600060208201905081810360008301526134fb816134bf565b9050919050565b7f4552433732313a207472616e7366657220746f206e6f6e20455243373231526560008201527f63656976657220696d706c656d656e7465720000000000000000000000000000602082015250565b600061355e6032836123d4565b915061356982613502565b604082019050919050565b6000602082019050818103600083015261358d81613551565b9050919050565b7f4552433732313a206d696e7420746f20746865207a65726f2061646472657373600082015250565b60006135ca6020836123d4565b91506135d582613594565b602082019050919050565b600060208201905081810360008301526135f9816135bd565b9050919050565b7f4552433732313a20746f6b656e20616c7265616479206d696e74656400000000600082015250565b6000613636601c836123d4565b915061364182613600565b602082019050919050565b6000602082019050818103600083015261366581613629565b9050919050565b7f4e487b7100000000000000000000000000000000000000000000000000000000600052601260045260246000fd5b7f455243373231456e756d657261626c653a20636f6e736563757469766520747260008201527f616e7366657273206e6f7420737570706f727465640000000000000000000000602082015250565b60006136f76035836123d4565b91506137028261369b565b604082019050919050565b60006020820190508181036000830152613726816136ea565b9050919050565b600081519050919050565b600082825260208201905092915050565b60006137548261372d565b61375e8185613738565b935061376e8185602086016123e5565b6137778161240f565b840191505092915050565b60006080820190506137976000830187612510565b6137a46020830186612510565b6137b160408301856125a6565b81810360608301526137c38184613749565b905095945050505050565b6000815190506137dd8161233a565b92915050565b6000602082840312156137f9576137f8612304565b5b6000613807848285016137ce565b91505092915050565b600061381b8261247b565b91506138268361247b565b925082820390508181111561383e5761383d6131b1565b5b92915050565b7f4e487b7100000000000000000000000000000000000000000000000000000000600052603160045260246000fdfea2646970667358221220d2092f5fa05f6361a618e17f12bd53d2381dbae5b8ba38b2c4e7168f7d191c9764736f6c63430008130033",
  "linkReferences": {},
  "deployedLinkReferences": {}
}